{
  "_format": "hh-sol-artifact-1",
  "contractName": "Staking",
  "sourceName": "contracts/Staking.sol",
  "abi": [
    {
      "inputs": [],
      "stateMutability": "nonpayable",
      "type": "constructor"
    },
    {
      "inputs": [
        {
          "internalType": "address",
          "name": "_staker",
          "type": "address"
        }
      ],
      "name": "avaibleRewards",
      "outputs": [
        {
          "internalType": "uint256",
          "name": "",
          "type": "uint256"
        }
      ],
      "stateMutability": "view",
      "type": "function"
    },
    {
      "inputs": [],
      "name": "claimRewards",
      "outputs": [],
      "stateMutability": "nonpayable",
      "type": "function"
    },
    {
      "inputs": [
        {
          "internalType": "address",
          "name": "_user",
          "type": "address"
        }
      ],
      "name": "getStakedTokens",
      "outputs": [
        {
          "components": [
            {
              "internalType": "address",
              "name": "staker",
              "type": "address"
            },
            {
              "internalType": "uint256",
              "name": "tokenId",
              "type": "uint256"
            }
          ],
          "internalType": "struct Staking.StakedToken[]",
          "name": "",
          "type": "tuple[]"
        }
      ],
      "stateMutability": "view",
      "type": "function"
    },
    {
      "inputs": [],
      "name": "nftCollection",
      "outputs": [
        {
          "internalType": "contract IERC721",
          "name": "",
          "type": "address"
        }
      ],
      "stateMutability": "view",
      "type": "function"
    },
    {
      "inputs": [],
      "name": "rewardsToken",
      "outputs": [
        {
          "internalType": "contract IERC20",
          "name": "",
          "type": "address"
        }
      ],
      "stateMutability": "view",
      "type": "function"
    },
    {
      "inputs": [
        {
          "internalType": "uint256",
          "name": "_tokenId",
          "type": "uint256"
        }
      ],
      "name": "stake",
      "outputs": [],
      "stateMutability": "nonpayable",
      "type": "function"
    },
    {
      "inputs": [
        {
          "internalType": "uint256",
          "name": "",
          "type": "uint256"
        }
      ],
      "name": "stakerAddress",
      "outputs": [
        {
          "internalType": "address",
          "name": "",
          "type": "address"
        }
      ],
      "stateMutability": "view",
      "type": "function"
    },
    {
      "inputs": [
        {
          "internalType": "address",
          "name": "",
          "type": "address"
        }
      ],
      "name": "stakers",
      "outputs": [
        {
          "internalType": "uint256",
          "name": "amountStaked",
          "type": "uint256"
        },
        {
          "internalType": "uint256",
          "name": "timeOfLastUpdate",
          "type": "uint256"
        },
        {
          "internalType": "uint256",
          "name": "unclaimedRewards",
          "type": "uint256"
        }
      ],
      "stateMutability": "view",
      "type": "function"
    },
    {
      "inputs": [
        {
          "internalType": "uint256",
          "name": "_tokenId",
          "type": "uint256"
        }
      ],
      "name": "withdraw",
      "outputs": [],
      "stateMutability": "nonpayable",
      "type": "function"
    }
  ],
  "bytecode": "0x60c0604052670de0b6b3a764000060015534801561001c57600080fd5b50600160008190555073cfd8c915f51b1ba99ac1f80c57c2f33f8d9e7dd473ffffffffffffffffffffffffffffffffffffffff1660808173ffffffffffffffffffffffffffffffffffffffff168152505073e06359d50700aa9f37723bf3a89183bbf7f4a94173ffffffffffffffffffffffffffffffffffffffff1660a08173ffffffffffffffffffffffffffffffffffffffff168152505060805160a051611fa36100f66000396000818161053101528181610b1001528181610c630152610d530152600081816106fd0152610fcd0152611fa36000f3fe608060405234801561001057600080fd5b50600436106100935760003560e01c80636588103b116100665780636588103b1461011e5780639168ae721461013c578063940670451461016e578063a694fc3a1461019e578063d1af0c7d146101ba57610093565b80632e1a7d4d14610098578063372500ab146100b457806360ea3bfe146100be57806363c28db1146100ee575b600080fd5b6100b260048036038101906100ad919061148b565b6101d8565b005b6100bc6105ca565b005b6100d860048036038101906100d39190611516565b610744565b6040516100e59190611552565b60405180910390f35b61010860048036038101906101039190611516565b6107a8565b6040516101159190611669565b60405180910390f35b610126610b0e565b60405161013391906116ea565b60405180910390f35b61015660048036038101906101519190611516565b610b32565b60405161016593929190611705565b60405180910390f35b6101886004803603810190610183919061148b565b610b5c565b604051610195919061174b565b60405180910390f35b6101b860048036038101906101b3919061148b565b610b8f565b005b6101c2610fcb565b6040516101cf9190611787565b60405180910390f35b6101e0610fef565b6000600260003373ffffffffffffffffffffffffffffffffffffffff1673ffffffffffffffffffffffffffffffffffffffff1681526020019081526020016000206000015411610265576040517f08c379a000000000000000000000000000000000000000000000000000000000815260040161025c906117ff565b60405180910390fd5b3373ffffffffffffffffffffffffffffffffffffffff166003600083815260200190815260200160002060009054906101000a900473ffffffffffffffffffffffffffffffffffffffff1673ffffffffffffffffffffffffffffffffffffffff1614610306576040517f08c379a00000000000000000000000000000000000000000000000000000000081526004016102fd9061186b565b60405180910390fd5b6000805b600260003373ffffffffffffffffffffffffffffffffffffffff1673ffffffffffffffffffffffffffffffffffffffff168152602001908152602001600020600101805490508110156103de5782600260003373ffffffffffffffffffffffffffffffffffffffff1673ffffffffffffffffffffffffffffffffffffffff16815260200190815260200160002060010182815481106103ac576103ab61188b565b5b906000526020600020906002020160010154036103cb578091506103de565b80806103d6906118e9565b91505061030a565b506000600260003373ffffffffffffffffffffffffffffffffffffffff1673ffffffffffffffffffffffffffffffffffffffff16815260200190815260200160002060010182815481106104355761043461188b565b5b906000526020600020906002020160000160006101000a81548173ffffffffffffffffffffffffffffffffffffffff021916908373ffffffffffffffffffffffffffffffffffffffff160217905550600260003373ffffffffffffffffffffffffffffffffffffffff1673ffffffffffffffffffffffffffffffffffffffff16815260200190815260200160002060000160008154809291906104d790611931565b919050555060006003600084815260200190815260200160002060006101000a81548173ffffffffffffffffffffffffffffffffffffffff021916908373ffffffffffffffffffffffffffffffffffffffff1602179055507f000000000000000000000000000000000000000000000000000000000000000073ffffffffffffffffffffffffffffffffffffffff166323b872dd3033856040518463ffffffff1660e01b815260040161058c9392919061195a565b600060405180830381600087803b1580156105a657600080fd5b505af11580156105ba573d6000803e3d6000fd5b50505050506105c761103e565b50565b6000600260003373ffffffffffffffffffffffffffffffffffffffff1673ffffffffffffffffffffffffffffffffffffffff1681526020019081526020016000206003015461061833611048565b6106229190611991565b905060008111610667576040517f08c379a000000000000000000000000000000000000000000000000000000000815260040161065e90611a11565b60405180910390fd5b42600260003373ffffffffffffffffffffffffffffffffffffffff1673ffffffffffffffffffffffffffffffffffffffff168152602001908152602001600020600201819055506000600260003373ffffffffffffffffffffffffffffffffffffffff1673ffffffffffffffffffffffffffffffffffffffff1681526020019081526020016000206003018190555061074133827f000000000000000000000000000000000000000000000000000000000000000073ffffffffffffffffffffffffffffffffffffffff166111069092919063ffffffff16565b50565b600080600260008473ffffffffffffffffffffffffffffffffffffffff1673ffffffffffffffffffffffffffffffffffffffff1681526020019081526020016000206003015461079384611048565b61079d9190611991565b905080915050919050565b60606000600260008473ffffffffffffffffffffffffffffffffffffffff1673ffffffffffffffffffffffffffffffffffffffff168152602001908152602001600020600001541115610ab1576000600260008473ffffffffffffffffffffffffffffffffffffffff1673ffffffffffffffffffffffffffffffffffffffff1681526020019081526020016000206000015467ffffffffffffffff81111561085357610852611a31565b5b60405190808252806020026020018201604052801561088c57816020015b610879611420565b8152602001906001900390816108715790505b5090506000805b600260008673ffffffffffffffffffffffffffffffffffffffff1673ffffffffffffffffffffffffffffffffffffffff16815260200190815260200160002060010180549050811015610aa657600073ffffffffffffffffffffffffffffffffffffffff16600260008773ffffffffffffffffffffffffffffffffffffffff1673ffffffffffffffffffffffffffffffffffffffff168152602001908152602001600020600101828154811061094c5761094b61188b565b5b906000526020600020906002020160000160009054906101000a900473ffffffffffffffffffffffffffffffffffffffff1673ffffffffffffffffffffffffffffffffffffffff1614610a9357600260008673ffffffffffffffffffffffffffffffffffffffff1673ffffffffffffffffffffffffffffffffffffffff16815260200190815260200160002060010181815481106109ed576109ec61188b565b5b90600052602060002090600202016040518060400160405290816000820160009054906101000a900473ffffffffffffffffffffffffffffffffffffffff1673ffffffffffffffffffffffffffffffffffffffff1673ffffffffffffffffffffffffffffffffffffffff168152602001600182015481525050838381518110610a7957610a7861188b565b5b60200260200101819052508180610a8f906118e9565b9250505b8080610a9e906118e9565b915050610893565b508192505050610b09565b600067ffffffffffffffff811115610acc57610acb611a31565b5b604051908082528060200260200182016040528015610b0557816020015b610af2611420565b815260200190600190039081610aea5790505b5090505b919050565b7f000000000000000000000000000000000000000000000000000000000000000081565b60026020528060005260406000206000915090508060000154908060020154908060030154905083565b60036020528060005260406000206000915054906101000a900473ffffffffffffffffffffffffffffffffffffffff1681565b610b97610fef565b6000600260003373ffffffffffffffffffffffffffffffffffffffff1673ffffffffffffffffffffffffffffffffffffffff168152602001908152602001600020600001541115610c4a576000610bed33611048565b905080600260003373ffffffffffffffffffffffffffffffffffffffff1673ffffffffffffffffffffffffffffffffffffffff1681526020019081526020016000206003016000828254610c419190611991565b92505081905550505b3373ffffffffffffffffffffffffffffffffffffffff167f000000000000000000000000000000000000000000000000000000000000000073ffffffffffffffffffffffffffffffffffffffff16636352211e836040518263ffffffff1660e01b8152600401610cba9190611552565b602060405180830381865afa158015610cd7573d6000803e3d6000fd5b505050506040513d601f19601f82011682018060405250810190610cfb9190611a75565b73ffffffffffffffffffffffffffffffffffffffff1614610d51576040517f08c379a0000000000000000000000000000000000000000000000000000000008152600401610d4890611aee565b60405180910390fd5b7f000000000000000000000000000000000000000000000000000000000000000073ffffffffffffffffffffffffffffffffffffffff166323b872dd3330846040518463ffffffff1660e01b8152600401610dae9392919061195a565b600060405180830381600087803b158015610dc857600080fd5b505af1158015610ddc573d6000803e3d6000fd5b50505050600060405180604001604052803373ffffffffffffffffffffffffffffffffffffffff168152602001838152509050600260003373ffffffffffffffffffffffffffffffffffffffff1673ffffffffffffffffffffffffffffffffffffffff16815260200190815260200160002060010181908060018154018082558091505060019003906000526020600020906002020160009091909190915060008201518160000160006101000a81548173ffffffffffffffffffffffffffffffffffffffff021916908373ffffffffffffffffffffffffffffffffffffffff160217905550602082015181600101555050600260003373ffffffffffffffffffffffffffffffffffffffff1673ffffffffffffffffffffffffffffffffffffffff1681526020019081526020016000206000016000815480929190610f21906118e9565b9190505550336003600084815260200190815260200160002060006101000a81548173ffffffffffffffffffffffffffffffffffffffff021916908373ffffffffffffffffffffffffffffffffffffffff16021790555042600260003373ffffffffffffffffffffffffffffffffffffffff1673ffffffffffffffffffffffffffffffffffffffff1681526020019081526020016000206002018190555050610fc861103e565b50565b7f000000000000000000000000000000000000000000000000000000000000000081565b600260005403611034576040517f08c379a000000000000000000000000000000000000000000000000000000000815260040161102b90611b5a565b60405180910390fd5b6002600081905550565b6001600081905550565b6000610e10600154600260008573ffffffffffffffffffffffffffffffffffffffff1673ffffffffffffffffffffffffffffffffffffffff16815260200190815260200160002060000154600260008673ffffffffffffffffffffffffffffffffffffffff1673ffffffffffffffffffffffffffffffffffffffff16815260200190815260200160002060020154426110e19190611b7a565b6110eb9190611bae565b6110f59190611bae565b6110ff9190611c1f565b9050919050565b6111878363a9059cbb60e01b8484604051602401611125929190611c50565b604051602081830303815290604052907bffffffffffffffffffffffffffffffffffffffffffffffffffffffff19166020820180517bffffffffffffffffffffffffffffffffffffffffffffffffffffffff838183161783525050505061118c565b505050565b60006111ee826040518060400160405280602081526020017f5361666545524332303a206c6f772d6c6576656c2063616c6c206661696c65648152508573ffffffffffffffffffffffffffffffffffffffff166112539092919063ffffffff16565b905060008151111561124e578080602001905181019061120e9190611cb1565b61124d576040517f08c379a000000000000000000000000000000000000000000000000000000000815260040161124490611d50565b60405180910390fd5b5b505050565b6060611262848460008561126b565b90509392505050565b6060824710156112b0576040517f08c379a00000000000000000000000000000000000000000000000000000000081526004016112a790611de2565b60405180910390fd5b6000808673ffffffffffffffffffffffffffffffffffffffff1685876040516112d99190611e73565b60006040518083038185875af1925050503d8060008114611316576040519150601f19603f3d011682016040523d82523d6000602084013e61131b565b606091505b509150915061132c87838387611338565b92505050949350505050565b6060831561139a57600083510361139257611352856113ad565b611391576040517f08c379a000000000000000000000000000000000000000000000000000000000815260040161138890611ed6565b60405180910390fd5b5b8290506113a5565b6113a483836113d0565b5b949350505050565b6000808273ffffffffffffffffffffffffffffffffffffffff163b119050919050565b6000825111156113e35781518083602001fd5b806040517f08c379a00000000000000000000000000000000000000000000000000000000081526004016114179190611f4b565b60405180910390fd5b6040518060400160405280600073ffffffffffffffffffffffffffffffffffffffff168152602001600081525090565b600080fd5b6000819050919050565b61146881611455565b811461147357600080fd5b50565b6000813590506114858161145f565b92915050565b6000602082840312156114a1576114a0611450565b5b60006114af84828501611476565b91505092915050565b600073ffffffffffffffffffffffffffffffffffffffff82169050919050565b60006114e3826114b8565b9050919050565b6114f3816114d8565b81146114fe57600080fd5b50565b600081359050611510816114ea565b92915050565b60006020828403121561152c5761152b611450565b5b600061153a84828501611501565b91505092915050565b61154c81611455565b82525050565b60006020820190506115676000830184611543565b92915050565b600081519050919050565b600082825260208201905092915050565b6000819050602082019050919050565b6115a2816114d8565b82525050565b6115b181611455565b82525050565b6040820160008201516115cd6000850182611599565b5060208201516115e060208501826115a8565b50505050565b60006115f283836115b7565b60408301905092915050565b6000602082019050919050565b60006116168261156d565b6116208185611578565b935061162b83611589565b8060005b8381101561165c57815161164388826115e6565b975061164e836115fe565b92505060018101905061162f565b5085935050505092915050565b60006020820190508181036000830152611683818461160b565b905092915050565b6000819050919050565b60006116b06116ab6116a6846114b8565b61168b565b6114b8565b9050919050565b60006116c282611695565b9050919050565b60006116d4826116b7565b9050919050565b6116e4816116c9565b82525050565b60006020820190506116ff60008301846116db565b92915050565b600060608201905061171a6000830186611543565b6117276020830185611543565b6117346040830184611543565b949350505050565b611745816114d8565b82525050565b6000602082019050611760600083018461173c565b92915050565b6000611771826116b7565b9050919050565b61178181611766565b82525050565b600060208201905061179c6000830184611778565b92915050565b600082825260208201905092915050565b7f596f7520646f6e2774206861766520746f6b656e73207374616b656400000000600082015250565b60006117e9601c836117a2565b91506117f4826117b3565b602082019050919050565b60006020820190508181036000830152611818816117dc565b9050919050565b7f596f7520646f6e2774206f776e207468697320746f6b656e0000000000000000600082015250565b60006118556018836117a2565b91506118608261181f565b602082019050919050565b6000602082019050818103600083015261188481611848565b9050919050565b7f4e487b7100000000000000000000000000000000000000000000000000000000600052603260045260246000fd5b7f4e487b7100000000000000000000000000000000000000000000000000000000600052601160045260246000fd5b60006118f482611455565b91507fffffffffffffffffffffffffffffffffffffffffffffffffffffffffffffffff8203611926576119256118ba565b5b600182019050919050565b600061193c82611455565b91506000820361194f5761194e6118ba565b5b600182039050919050565b600060608201905061196f600083018661173c565b61197c602083018561173c565b6119896040830184611543565b949350505050565b600061199c82611455565b91506119a783611455565b92508282019050808211156119bf576119be6118ba565b5b92915050565b7f596f752068617665206e6f207265776172647320746f20636c61696d00000000600082015250565b60006119fb601c836117a2565b9150611a06826119c5565b602082019050919050565b60006020820190508181036000830152611a2a816119ee565b9050919050565b7f4e487b7100000000000000000000000000000000000000000000000000000000600052604160045260246000fd5b600081519050611a6f816114ea565b92915050565b600060208284031215611a8b57611a8a611450565b5b6000611a9984828501611a60565b91505092915050565b7f596f7520646f6e2774206f776e207468697320746f6b656e2100000000000000600082015250565b6000611ad86019836117a2565b9150611ae382611aa2565b602082019050919050565b60006020820190508181036000830152611b0781611acb565b9050919050565b7f5265656e7472616e637947756172643a207265656e7472616e742063616c6c00600082015250565b6000611b44601f836117a2565b9150611b4f82611b0e565b602082019050919050565b60006020820190508181036000830152611b7381611b37565b9050919050565b6000611b8582611455565b9150611b9083611455565b9250828203905081811115611ba857611ba76118ba565b5b92915050565b6000611bb982611455565b9150611bc483611455565b9250828202611bd281611455565b91508282048414831517611be957611be86118ba565b5b5092915050565b7f4e487b7100000000000000000000000000000000000000000000000000000000600052601260045260246000fd5b6000611c2a82611455565b9150611c3583611455565b925082611c4557611c44611bf0565b5b828204905092915050565b6000604082019050611c65600083018561173c565b611c726020830184611543565b9392505050565b60008115159050919050565b611c8e81611c79565b8114611c9957600080fd5b50565b600081519050611cab81611c85565b92915050565b600060208284031215611cc757611cc6611450565b5b6000611cd584828501611c9c565b91505092915050565b7f5361666545524332303a204552433230206f7065726174696f6e20646964206e60008201527f6f74207375636365656400000000000000000000000000000000000000000000602082015250565b6000611d3a602a836117a2565b9150611d4582611cde565b604082019050919050565b60006020820190508181036000830152611d6981611d2d565b9050919050565b7f416464726573733a20696e73756666696369656e742062616c616e636520666f60008201527f722063616c6c0000000000000000000000000000000000000000000000000000602082015250565b6000611dcc6026836117a2565b9150611dd782611d70565b604082019050919050565b60006020820190508181036000830152611dfb81611dbf565b9050919050565b600081519050919050565b600081905092915050565b60005b83811015611e36578082015181840152602081019050611e1b565b60008484015250505050565b6000611e4d82611e02565b611e578185611e0d565b9350611e67818560208601611e18565b80840191505092915050565b6000611e7f8284611e42565b915081905092915050565b7f416464726573733a2063616c6c20746f206e6f6e2d636f6e7472616374000000600082015250565b6000611ec0601d836117a2565b9150611ecb82611e8a565b602082019050919050565b60006020820190508181036000830152611eef81611eb3565b9050919050565b600081519050919050565b6000601f19601f8301169050919050565b6000611f1d82611ef6565b611f2781856117a2565b9350611f37818560208601611e18565b611f4081611f01565b840191505092915050565b60006020820190508181036000830152611f658184611f12565b90509291505056fea2646970667358221220fadb5222d203d2ab8dafdd4f13b8878b7d7d382cb4d79256962afc5d6c6dada564736f6c63430008110033",
  "linkReferences": {},
  "deployedLinkReferences": {}
}